{"abi":[{"type":"constructor","inputs":[{"name":"_registry","type":"address","internalType":"contract SpiritRegistry"},{"name":"_protocolTreasury","type":"address","internalType":"address"}],"stateMutability":"nonpayable"},{"type":"function","name":"acceptedCurrency","inputs":[{"name":"","type":"address","internalType":"address"}],"outputs":[{"name":"","type":"bool","internalType":"bool"}],"stateMutability":"view"},{"type":"function","name":"owner","inputs":[],"outputs":[{"name":"","type":"address","internalType":"address"}],"stateMutability":"view"},{"type":"function","name":"protocolTreasury","inputs":[],"outputs":[{"name":"","type":"address","internalType":"address"}],"stateMutability":"view"},{"type":"function","name":"registry","inputs":[],"outputs":[{"name":"","type":"address","internalType":"contract SpiritRegistry"}],"stateMutability":"view"},{"type":"function","name":"routeRevenue","inputs":[{"name":"spiritId","type":"string","internalType":"string"},{"name":"currency","type":"address","internalType":"address"},{"name":"amount","type":"uint256","internalType":"uint256"},{"name":"metadataHash","type":"bytes32","internalType":"bytes32"}],"outputs":[],"stateMutability":"nonpayable"},{"type":"function","name":"routeRevenueNative","inputs":[{"name":"spiritId","type":"string","internalType":"string"},{"name":"metadataHash","type":"bytes32","internalType":"bytes32"}],"outputs":[],"stateMutability":"payable"},{"type":"function","name":"setAcceptedCurrency","inputs":[{"name":"currency","type":"address","internalType":"address"},{"name":"allowed","type":"bool","internalType":"bool"}],"outputs":[],"stateMutability":"nonpayable"},{"type":"function","name":"setProtocolTreasury","inputs":[{"name":"newTreasury","type":"address","internalType":"address"}],"outputs":[],"stateMutability":"nonpayable"},{"type":"function","name":"setRegistry","inputs":[{"name":"newRegistry","type":"address","internalType":"contract SpiritRegistry"}],"outputs":[],"stateMutability":"nonpayable"},{"type":"event","name":"CurrencyUpdated","inputs":[{"name":"currency","type":"address","indexed":true,"internalType":"address"},{"name":"allowed","type":"bool","indexed":false,"internalType":"bool"}],"anonymous":false},{"type":"event","name":"RegistryUpdated","inputs":[{"name":"oldRegistry","type":"address","indexed":true,"internalType":"address"},{"name":"newRegistry","type":"address","indexed":true,"internalType":"address"}],"anonymous":false},{"type":"event","name":"RevenueRouted","inputs":[{"name":"spiritKey","type":"bytes32","indexed":true,"internalType":"bytes32"},{"name":"currency","type":"address","indexed":true,"internalType":"address"},{"name":"amount","type":"uint256","indexed":false,"internalType":"uint256"},{"name":"artistAmount","type":"uint256","indexed":false,"internalType":"uint256"},{"name":"agentAmount","type":"uint256","indexed":false,"internalType":"uint256"},{"name":"platformAmount","type":"uint256","indexed":false,"internalType":"uint256"},{"name":"protocolAmount","type":"uint256","indexed":false,"internalType":"uint256"},{"name":"metadataHash","type":"bytes32","indexed":false,"internalType":"bytes32"}],"anonymous":false},{"type":"event","name":"TreasuryUpdated","inputs":[{"name":"oldTreasury","type":"address","indexed":true,"internalType":"address"},{"name":"newTreasury","type":"address","indexed":true,"internalType":"address"}],"anonymous":false}],"bytecode":{"object":"0x6080346100f057601f610c9238819003918201601f19168301916001600160401b038311848410176100f45780849260409485528339810103126100f05780516001600160a01b03811691908290036100f057602001516001600160a01b03811691908290036100f057801515806100e7575b156100b3575f80546001600160a01b0319908116929092179055600180548216929092179091556002805490911633179055604051610b8990816101098239f35b60405162461bcd60e51b815260206004820152600c60248201526b5a45524f5f4144445245535360a01b6044820152606490fd5b50811515610072565b5f80fd5b634e487b7160e01b5f52604160045260245ffdfe60806040526004361015610011575f80fd5b5f3560e01c80630c5a61f8146107105780633934a4f4146104f75780637b103999146104d0578063803db96d146104a85780638da5cb5b14610480578063a91ee0dc146103fb578063aa9e95cc146103be578063d4da7f261461010a5763fe08248b1461007c575f80fd5b3461010657604036600319011261010657610095610794565b602435908115158092036101065760207f1a35102ad7ccac3b555eb9b62bf79737c60d8711cf2f9fdcf08c42c95db12dc7916100dc60018060a01b036002541633146107d8565b60018060a01b031692835f526003825260405f2060ff1981541660ff8316179055604051908152a2005b5f80fd5b346101065760803660031901126101065760043567ffffffffffffffff81116101065761013b9036906004016107aa565b6024356001600160a01b0381169290918383036101065760443592845f52600360205260ff60405f205416156103825761017684151561084b565b5f5460405163584f040160e01b8152929060e09084906001600160a01b031681806101a5868a6004840161097e565b03915afa92831561033d575f915f935f925f96610348575b50855161ffff166101ce90896109a5565b612710900494602087015161ffff166101e7908a6109a5565b6127109004966040015161ffff166101ff908a6109a5565b6127109004938488610211898d6109cc565b9061021b916109cc565b90610225916109cc565b958733916102339286610a75565b8733916102409285610a75565b83339161024d9284610a75565b6001546102679185916001600160a01b0316903390610a75565b5f54604051634114fe1360e11b8152966001600160a01b039091169187918291610294916004840161097e565b03815a93602094fa94851561033d575f95610301575b50604080519687526020870193909352918501929092526060840152608083015260643560a0830152907fd8bea59b88bc3ab442396578c428b6ce8f92b7c22e26cf8f7c472af3c1351299908060c081015b0390a3005b919450946020823d602011610335575b8161031e60209383610888565b8101031261010657905190949093906102fc6102aa565b3d9150610311565b6040513d5f823e3d90fd5b925094509250610370915060e03d60e01161037b575b6103688183610888565b8101906108e1565b9491939091896101bd565b503d61035e565b60405162461bcd60e51b815260206004820152601460248201527310d55494915390d657d393d517d0531313d5d15160621b6044820152606490fd5b34610106576020366003190112610106576001600160a01b036103df610794565b165f526003602052602060ff60405f2054166040519015158152f35b34610106576020366003190112610106576004356001600160a01b038116908190036101065761043660018060a01b036002541633146107d8565b610441811515610810565b5f548160018060a01b0382167f482b97c53e48ffa324a976e2738053e9aff6eee04d8aac63b10e19411d869b825f80a36001600160a01b031916175f55005b34610106575f366003190112610106576002546040516001600160a01b039091168152602090f35b34610106575f366003190112610106576001546040516001600160a01b039091168152602090f35b34610106575f366003190112610106575f546040516001600160a01b039091168152602090f35b60403660031901126101065760043567ffffffffffffffff8111610106576105239036906004016107aa565b9061052f34151561084b565b5f5460405163584f040160e01b8152929060e09084906001600160a01b0316818061055e86886004840161097e565b03915afa91821561033d575f935f80915f956106d6575b5060409385936105e985946020946105e46127106105bf61ffff826105b261062c9f8c836105a78680945116346109a5565b049e015116346109a5565b049c8d9c015116346109a5565b04998a936105e48a6105de876105d9866105d985346109cc565b6109cc565b9f610a18565b610a18565b6001546106009089906001600160a01b0316610a18565b5f54604051634114fe1360e11b81529788936001600160a01b039092169284928392916004840161097e565b03915afa93841561033d575f9461069a575b506040805134815260208101929092528101919091526060810191909152608081019290925260243560a08301525f917fd8bea59b88bc3ab442396578c428b6ce8f92b7c22e26cf8f7c472af3c1351299908060c081016102fc565b94935091906020853d6020116106ce575b816106b860209383610888565b81010312610106579351929390916102fc61063e565b3d91506106ab565b9394505050925060e03d60e011610709575b6106f28183610888565b81016106fd916108e1565b92949293929186610575565b503d6106e8565b3461010657602036600319011261010657610729610794565b61073e60018060a01b036002541633146107d8565b6001600160a01b0316610752811515610810565b600154816001600160a01b0382167f4ab5be82436d353e61ca18726e984e561f5c1cc7c6d38b29d2553c790434705a5f80a36001600160a01b03191617600155005b600435906001600160a01b038216820361010657565b9181601f840112156101065782359167ffffffffffffffff8311610106576020838186019501011161010657565b156107df57565b60405162461bcd60e51b81526020600482015260096024820152682727aa2fa7aba722a960b91b6044820152606490fd5b1561081757565b60405162461bcd60e51b815260206004820152600c60248201526b5a45524f5f4144445245535360a01b6044820152606490fd5b1561085257565b60405162461bcd60e51b815260206004820152600e60248201526d1253959053125117d05353d5539560921b6044820152606490fd5b90601f8019910116810190811067ffffffffffffffff8211176108aa57604052565b634e487b7160e01b5f52604160045260245ffd5b51906001600160a01b038216820361010657565b519061ffff8216820361010657565b80910360e08112610106576108f5826108be565b92610902602084016108be565b926080610911604083016108be565b93605f19011261010657604051906080820182811067ffffffffffffffff8211176108aa576109769160c09160405261094c606082016108d2565b845261095a608082016108d2565b602085015261096b60a082016108d2565b6040850152016108d2565b606082015290565b90918060409360208452816020850152848401375f828201840152601f01601f1916010190565b818102929181159184041417156109b857565b634e487b7160e01b5f52601160045260245ffd5b919082039182116109b857565b3d15610a13573d9067ffffffffffffffff82116108aa5760405191610a08601f8201601f191660200184610888565b82523d5f602084013e565b606090565b8115610a71575f80809381935af1610a2e6109d9565b5015610a3657565b60405162461bcd60e51b815260206004820152601360248201527211551217d514905394d1915497d19052531151606a1b6044820152606490fd5b5050565b908315610b4d576040516323b872dd60e01b602082019081526001600160a01b0392831660248301529190931660448401526064808401949094529282525f9283928390610ac4608482610888565b51925af1610ad06109d9565b81610b15575b5015610ade57565b60405162461bcd60e51b815260206004820152600f60248201526e1514905394d1915497d19052531151608a1b6044820152606490fd5b8051801592508215610b2a575b50505f610ad6565b819250906020918101031261010657602001518015158103610106575f80610b22565b5050505056fea2646970667358221220eb490a7db6923d5cc4d7b982f5a57ba17348e8701e9e2d01ebb986f1341cfeb564736f6c634300081a0033","linkReferences":{}},"methodIdentifiers":{"acceptedCurrency(address)":"aa9e95cc","owner()":"8da5cb5b","protocolTreasury()":"803db96d","registry()":"7b103999","routeRevenue(string,address,uint256,bytes32)":"d4da7f26","routeRevenueNative(string,bytes32)":"3934a4f4","setAcceptedCurrency(address,bool)":"fe08248b","setProtocolTreasury(address)":"0c5a61f8","setRegistry(address)":"a91ee0dc"},"id":19}