{"abi":[{"type":"constructor","inputs":[{"name":"_splitConfigMutable","type":"bool","internalType":"bool"}],"stateMutability":"nonpayable"},{"type":"function","name":"getAgent","inputs":[{"name":"spiritId","type":"string","internalType":"string"}],"outputs":[{"name":"record","type":"tuple","internalType":"struct SpiritRegistry.AgentRecord","components":[{"name":"spiritId","type":"string","internalType":"string"},{"name":"registryTokenId","type":"uint256","internalType":"uint256"},{"name":"trainer","type":"address","internalType":"address"},{"name":"platform","type":"address","internalType":"address"},{"name":"treasury","type":"address","internalType":"address"},{"name":"metadataURI","type":"string","internalType":"string"},{"name":"split","type":"tuple","internalType":"struct SpiritRegistry.SplitConfig","components":[{"name":"artistBps","type":"uint16","internalType":"uint16"},{"name":"agentBps","type":"uint16","internalType":"uint16"},{"name":"platformBps","type":"uint16","internalType":"uint16"},{"name":"protocolBps","type":"uint16","internalType":"uint16"}]},{"name":"economics","type":"tuple","internalType":"struct SpiritRegistry.Economics","components":[{"name":"childToken","type":"address","internalType":"address"},{"name":"stakingPool","type":"address","internalType":"address"},{"name":"router","type":"address","internalType":"address"}]},{"name":"status","type":"uint8","internalType":"enum SpiritRegistry.Status"}]}],"stateMutability":"view"},{"type":"function","name":"getRecipients","inputs":[{"name":"spiritId","type":"string","internalType":"string"}],"outputs":[{"name":"trainer","type":"address","internalType":"address"},{"name":"platform","type":"address","internalType":"address"},{"name":"treasury","type":"address","internalType":"address"},{"name":"split","type":"tuple","internalType":"struct SpiritRegistry.SplitConfig","components":[{"name":"artistBps","type":"uint16","internalType":"uint16"},{"name":"agentBps","type":"uint16","internalType":"uint16"},{"name":"platformBps","type":"uint16","internalType":"uint16"},{"name":"protocolBps","type":"uint16","internalType":"uint16"}]}],"stateMutability":"view"},{"type":"function","name":"nextTokenId","inputs":[],"outputs":[{"name":"","type":"uint256","internalType":"uint256"}],"stateMutability":"view"},{"type":"function","name":"owner","inputs":[],"outputs":[{"name":"","type":"address","internalType":"address"}],"stateMutability":"view"},{"type":"function","name":"recordEvent","inputs":[{"name":"spiritId","type":"string","internalType":"string"},{"name":"eventType","type":"bytes32","internalType":"bytes32"},{"name":"contentHash","type":"bytes32","internalType":"bytes32"}],"outputs":[],"stateMutability":"nonpayable"},{"type":"function","name":"registerAgent","inputs":[{"name":"spiritId","type":"string","internalType":"string"},{"name":"trainer","type":"address","internalType":"address"},{"name":"platform","type":"address","internalType":"address"},{"name":"treasury","type":"address","internalType":"address"},{"name":"metadataURI","type":"string","internalType":"string"},{"name":"split","type":"tuple","internalType":"struct SpiritRegistry.SplitConfig","components":[{"name":"artistBps","type":"uint16","internalType":"uint16"},{"name":"agentBps","type":"uint16","internalType":"uint16"},{"name":"platformBps","type":"uint16","internalType":"uint16"},{"name":"protocolBps","type":"uint16","internalType":"uint16"}]}],"outputs":[{"name":"spiritKey","type":"bytes32","internalType":"bytes32"},{"name":"registryTokenId","type":"uint256","internalType":"uint256"}],"stateMutability":"nonpayable"},{"type":"function","name":"resolveKey","inputs":[{"name":"spiritId","type":"string","internalType":"string"}],"outputs":[{"name":"","type":"bytes32","internalType":"bytes32"}],"stateMutability":"pure"},{"type":"function","name":"setEconomicConfig","inputs":[{"name":"spiritId","type":"string","internalType":"string"},{"name":"childToken","type":"address","internalType":"address"},{"name":"stakingPool","type":"address","internalType":"address"},{"name":"router","type":"address","internalType":"address"}],"outputs":[],"stateMutability":"nonpayable"},{"type":"function","name":"splitConfigMutable","inputs":[],"outputs":[{"name":"","type":"bool","internalType":"bool"}],"stateMutability":"view"},{"type":"function","name":"updateMetadata","inputs":[{"name":"spiritId","type":"string","internalType":"string"},{"name":"metadataURI","type":"string","internalType":"string"}],"outputs":[],"stateMutability":"nonpayable"},{"type":"function","name":"updateSplitConfig","inputs":[{"name":"spiritId","type":"string","internalType":"string"},{"name":"split","type":"tuple","internalType":"struct SpiritRegistry.SplitConfig","components":[{"name":"artistBps","type":"uint16","internalType":"uint16"},{"name":"agentBps","type":"uint16","internalType":"uint16"},{"name":"platformBps","type":"uint16","internalType":"uint16"},{"name":"protocolBps","type":"uint16","internalType":"uint16"}]}],"outputs":[],"stateMutability":"nonpayable"},{"type":"function","name":"updateStatus","inputs":[{"name":"spiritId","type":"string","internalType":"string"},{"name":"status","type":"uint8","internalType":"enum SpiritRegistry.Status"}],"outputs":[],"stateMutability":"nonpayable"},{"type":"event","name":"AgentConfigured","inputs":[{"name":"spiritKey","type":"bytes32","indexed":true,"internalType":"bytes32"},{"name":"childToken","type":"address","indexed":false,"internalType":"address"},{"name":"stakingPool","type":"address","indexed":false,"internalType":"address"},{"name":"router","type":"address","indexed":false,"internalType":"address"}],"anonymous":false},{"type":"event","name":"AgentRegistered","inputs":[{"name":"spiritKey","type":"bytes32","indexed":true,"internalType":"bytes32"},{"name":"spiritId","type":"string","indexed":false,"internalType":"string"},{"name":"registryTokenId","type":"uint256","indexed":false,"internalType":"uint256"},{"name":"trainer","type":"address","indexed":false,"internalType":"address"},{"name":"platform","type":"address","indexed":false,"internalType":"address"},{"name":"treasury","type":"address","indexed":false,"internalType":"address"},{"name":"split","type":"tuple","indexed":false,"internalType":"struct SpiritRegistry.SplitConfig","components":[{"name":"artistBps","type":"uint16","internalType":"uint16"},{"name":"agentBps","type":"uint16","internalType":"uint16"},{"name":"platformBps","type":"uint16","internalType":"uint16"},{"name":"protocolBps","type":"uint16","internalType":"uint16"}]},{"name":"metadataURI","type":"string","indexed":false,"internalType":"string"}],"anonymous":false},{"type":"event","name":"MetadataUpdated","inputs":[{"name":"spiritKey","type":"bytes32","indexed":true,"internalType":"bytes32"},{"name":"metadataURI","type":"string","indexed":false,"internalType":"string"}],"anonymous":false},{"type":"event","name":"ProvenanceRecorded","inputs":[{"name":"spiritKey","type":"bytes32","indexed":true,"internalType":"bytes32"},{"name":"eventType","type":"bytes32","indexed":true,"internalType":"bytes32"},{"name":"contentHash","type":"bytes32","indexed":false,"internalType":"bytes32"}],"anonymous":false},{"type":"event","name":"SplitConfigUpdated","inputs":[{"name":"spiritKey","type":"bytes32","indexed":true,"internalType":"bytes32"},{"name":"split","type":"tuple","indexed":false,"internalType":"struct SpiritRegistry.SplitConfig","components":[{"name":"artistBps","type":"uint16","internalType":"uint16"},{"name":"agentBps","type":"uint16","internalType":"uint16"},{"name":"platformBps","type":"uint16","internalType":"uint16"},{"name":"protocolBps","type":"uint16","internalType":"uint16"}]}],"anonymous":false},{"type":"event","name":"StatusUpdated","inputs":[{"name":"spiritKey","type":"bytes32","indexed":true,"internalType":"bytes32"},{"name":"status","type":"uint8","indexed":false,"internalType":"enum SpiritRegistry.Status"}],"anonymous":false}],"bytecode":{"object":"0x608034607557601f6116ad38819003918201601f19168301916001600160401b0383118484101760795780849260209460405283398101031260755751801515809103607557600180553360018060a01b03195f5416175f5560ff80196002541691161760025560405161161f908161008e8239f35b5f80fd5b634e487b7160e01b5f52604160045260245ffdfe60806040526004361015610011575f80fd5b5f3560e01c80630cd08f1414611112578063183e0e0114610f165780632632c52e14610ef45780635361698214610dfd57806356ce0e6c14610bb6578063584f040114610acb57806375794a3c14610aae578063794464e9146108205780638229fc26146107dd57806389ff661b146101ea5780638da5cb5b146101c35763f7a3519e1461009d575f80fd5b346101bf5760603660031901126101bf576004356001600160401b0381116101bf576100d06100d79136906004016112bc565b36916113cf565b60208151910120805f5260046020526100f660ff60405f205416611414565b805f52600360205260018060a01b03600260405f200154163314158061019e575b8061018a575b610154576040519060443582527fe744aa3ad0d5d09e1da287b490a0dfc884aa3ab71beb7e9b9b1f94e77b78c601602060243593a3005b60405162461bcd60e51b815260206004820152600e60248201526d1393d517d055551213d49256915160921b6044820152606490fd5b505f546001600160a01b031633141561011d565b50805f52600360205260018060a01b03600360405f20015416331415610117565b5f80fd5b346101bf575f3660031901126101bf575f546040516001600160a01b039091168152602090f35b346101bf576101203660031901126101bf576004356001600160401b0381116101bf5761021b9036906004016112bc565b6102236112e9565b9061022c6112ff565b90610235611315565b926084356001600160401b0381116101bf576102559036906004016112bc565b9060803660a31901126101bf5783156107ad576001600160a01b03831615158061079b575b80610789575b6102899061144c565b6102943685896113cf565b6020815191012095865f52600460205260ff60405f20541661074f5761ffff60a4351660a435036101bf5761ffff60c4351660c435036101bf576102e461ffff60c4351661ffff60a435166115dc565b61ffff60e4351660e435036101bf576103049061ffff60e43516906115dc565b61ffff610104351661010435036101bf5761032a6127109161ffff6101043516906115dc565b0361071a57600154955f1987146107065760018701600155875f52600360205260405f206001600160401b038711610641576103668154611487565b601f81116106c5575b50865f601f8211600114610660575f91610655575b508760011b905f198960031b1c19161781555b600181018890556002810180546001600160a01b038881166001600160a01b031992831617909255600383018054858416908316179055600483018054928616929091169190911790556001600160401b038511610641576103fc6005820154611487565b601f81116105fd575b505f601f86116001146105615793610547937fd0ddf4ed2a8bcba37250eed4dc9e1826d294b369841e5321c553bdd42fd4b30a9793600a889460409e998e9c995f91610556575b508660011b905f198860031b1c19161760058201555b60068101805461ffff60301b6101043560301b169061ffff60301b199061ffff60a435169065ffffffffffff1916171663ffff000060c43560101b161765ffff0000000060e43560201b16171790550160ff198154169055895f5260046020528c5f20600160ff198254161790556104e88d519889986101408a526101408a01916114bf565b602088018c90526001600160a01b039586168e89015290851660608801529316608086015261ffff60a435811660a087015260c435811660c087015260e435811660e087015261010435166101008601528483036101208601526114bf565b0390a282519182526020820152f35b90508501355f61044c565b600582015f5260205f20905f5b601f19881681106105e55750937fd0ddf4ed2a8bcba37250eed4dc9e1826d294b369841e5321c553bdd42fd4b30a9793600a88948d9b989460409f9a9861054799601f198116106105cc575b5050600186811b016005820155610462565b8601355f19600389901b60f8161c191690558f806105ba565b9091602060018192858a01358155019301910161056e565b600582015f5260205f20601f870160051c81016020881061063a575b601f830160051c8201811061062f575050610405565b5f8155600101610619565b5080610619565b634e487b7160e01b5f52604160045260245ffd5b90508a01358b610384565b5f8381526020812092505b8c601f198b1682106106ad57505088601f19811610610694575b5050600187811b018155610397565b8b01355f1960038a901b60f8161c191690558a80610685565b6001839460209394849301358155019301910161066b565b815f5260205f20601f890160051c810160208a106106ff575b601f830160051c820181106106f457505061036f565b5f81556001016106de565b50806106de565b634e487b7160e01b5f52601160045260245ffd5b60405162461bcd60e51b815260206004820152600d60248201526c1253959053125117d4d4131255609a1b6044820152606490fd5b60405162461bcd60e51b81526020600482015260126024820152711053149150511657d49151d254d51154915160721b6044820152606490fd5b506001600160a01b0386161515610280565b506001600160a01b038516151561027a565b60405162461bcd60e51b8152602060048201526008602482015267115354151657d25160c21b6044820152606490fd5b346101bf5760203660031901126101bf576004356001600160401b0381116101bf576108126100d060209236906004016112bc565b818151910120604051908152f35b346101bf5760203660031901126101bf576004356001600160401b0381116101bf576108536108bc9136906004016112bc565b5f61010060405161086381611377565b60608152826020820152826040820152826060820152826080820152606060a082015261088e6114df565b60c082015260405161089f8161135c565b83815283602082015283604082015260e0820152015236916113cf565b60208151910120805f5260046020526108db60ff60405f205416611414565b5f52600360205260405f206040516108f281611377565b6108fb8261153c565b815260018201546020820190815260028301546001600160a01b039081166040840190815260038501548216606085019081526004860154909216608085019081529461094a6005820161153c565b9160a0860192835261095e60068301611503565b9460c0870195865260ff600a604051946109778661135c565b60078101546001600160a01b039081168752600882015481166020880152600982015416604087015260e08a019586520154610100890195911691906003831015610a9a576101e099610a9697610a5c95610a289589526109ed604051809e819e6020835251916101c06020820152019061132b565b945160408d0152516001600160a01b0390811660608d01529051811660808c015290511660a08a015251888203601f190160c08a015261132b565b945160e087019061ffff60608092828151168552826020820151166020860152826040820151166040860152015116910152565b5180516001600160a01b0390811661016087015260208201518116610180870152604090910151166101a0850152516101c084019061134f565b0390f35b634e487b7160e01b5f52602160045260245ffd5b346101bf575f3660031901126101bf576020600154604051908152f35b346101bf5760203660031901126101bf576004356001600160401b0381116101bf57610afe610b0e9136906004016112bc565b610b066114df565b5036916113cf565b60208151910120805f526004602052610b2d60ff60405f205416611414565b5f908152600360208190526040909120600281015491810154600482015460e0936001600160a01b0390811693610bb49382169290911690610b7190600601611503565b9160405194855260208501526040840152606083019061ffff60608092828151168552826020820151166020860152826040820151166040860152015116910152565bf35b346101bf5760403660031901126101bf576004356001600160401b0381116101bf57610be69036906004016112bc565b6024356001600160401b0381116101bf57610c08610c129136906004016112bc565b93909236916113cf565b6020815191012090815f526004602052610c3260ff60405f205416611414565b815f52600360205260018060a01b03600260405f2001541633141580610ddc575b80610dc8575b61015457815f526003602052600560405f2001926001600160401b03811161064157610c858454611487565b601f8111610d83575b505f93601f8211600114610d0157817fe36c73fd13989812054eaa73a813bdd65752bda9044a9bdac079e4143c6ab7bd94955f91610cf6575b508260011b905f198460031b1c19161790555b610cf16040519283926020845260208401916114bf565b0390a2005b905083013586610cc7565b601f19821694815f5260205f20905f5b878110610d6b5750837fe36c73fd13989812054eaa73a813bdd65752bda9044a9bdac079e4143c6ab7bd969710610d52575b5050600182811b019055610cda565b8401355f19600385901b60f8161c191690558580610d43565b90916020600181928589013581550193019101610d11565b845f5260205f20601f830160051c81019160208410610dbe575b601f0160051c01905b818110610db35750610c8e565b5f8155600101610da6565b9091508190610d9d565b505f546001600160a01b0316331415610c59565b50815f52600360205260018060a01b03600360405f20015416331415610c53565b346101bf5760403660031901126101bf576004356001600160401b0381116101bf57610e2d9036906004016112bc565b6024359160038310156101bf575f546001600160a01b03163303610ec357610e7a6020917f8ed894b6f384ca9c829b9aa5b056bc9106a90845a15616607e975d4ad488ee679336916113cf565b81815191012092835f5260048252610e9860ff60405f205416611414565b835f5260038252600a60405f200160ff1981541660ff8316179055610ec0604051809261134f565ba2005b60405162461bcd60e51b81526020600482015260096024820152682727aa2fa7aba722a960b91b6044820152606490fd5b346101bf575f3660031901126101bf57602060ff600254166040519015158152f35b346101bf5760a03660031901126101bf576004356001600160401b0381116101bf57610f469036906004016112bc565b9060803660231901126101bf5760ff60025416156110de57610f699136916113cf565b60208151910120805f526004602052610f8860ff60405f205416611414565b805f52600360205260018060a01b03600260405f20015416331415806110bd575b806110a9575b6101545760243561ffff81168082036101bf576044359161ffff83168084036101bf57610fdc81846115dc565b906064359161ffff8316908184036101bf5781610ff8916115dc565b926084359261ffff8416948585036101bf5761101786612710926115dc565b0361071a577f4ad166c806e167a0a831e35f8cbafa516986b874190c2a8e4629a71fe975cac0976080978a5f526003602052600660405f2001805461ffff60301b8860301b16908361ffff60301b199165ffffffffffff1916171663ffff00008560101b161765ffff000000008760201b161717905560405197508752506020860152506040840152506060820152a2005b505f546001600160a01b0316331415610faf565b50805f52600360205260018060a01b03600360405f20015416331415610fa9565b60405162461bcd60e51b815260206004820152600c60248201526b14d413125517d313d0d2d15160a21b6044820152606490fd5b346101bf5760803660031901126101bf576004356001600160401b0381116101bf576111429036906004016112bc565b61114a6112e9565b916111676111566112ff565b9161115f611315565b9336916113cf565b6020815191012092835f52600460205261118760ff60405f205416611414565b6001600160a01b0316801515806112aa575b80611298575b6111a89061144c565b835f52600360205260405f2060018060a01b0360028201541633141580611281575b8061126d575b610154577f15b2ca7e5d1ce98894017e9ba896916494cf94f67cd8dc9dd51f12a4544bfe4c93600960409260609584519061120a8261135c565b8682526001600160a01b039081166020808401829052958216969092018690526007830180549188166001600160a01b031992831617905560088301805482168317905592909101805490921684179091556040805194855291840152820152a2005b505f546001600160a01b03163314156111d0565b5060038101546001600160a01b03163314156111ca565b506001600160a01b038316151561119f565b506001600160a01b0382161515611199565b9181601f840112156101bf578235916001600160401b0383116101bf57602083818601950101116101bf57565b602435906001600160a01b03821682036101bf57565b604435906001600160a01b03821682036101bf57565b606435906001600160a01b03821682036101bf57565b805180835260209291819084018484015e5f828201840152601f01601f1916010190565b906003821015610a9a5752565b606081019081106001600160401b0382111761064157604052565b61012081019081106001600160401b0382111761064157604052565b608081019081106001600160401b0382111761064157604052565b90601f801991011681019081106001600160401b0382111761064157604052565b9291926001600160401b03821161064157604051916113f8601f8201601f1916602001846113ae565b8294818452818301116101bf578281602093845f960137010152565b1561141b57565b60405162461bcd60e51b81526020600482015260096024820152681393d517d193d5539160ba1b6044820152606490fd5b1561145357565b60405162461bcd60e51b815260206004820152600c60248201526b5a45524f5f4144445245535360a01b6044820152606490fd5b90600182811c921680156114b5575b60208310146114a157565b634e487b7160e01b5f52602260045260245ffd5b91607f1691611496565b908060209392818452848401375f828201840152601f01601f1916010190565b604051906114ec82611393565b5f6060838281528260208201528260408201520152565b9060405161151081611393565b606061ffff8294548181168452818160101c166020850152818160201c16604085015260301c16910152565b9060405191825f82549261154f84611487565b80845293600181169081156115ba5750600114611576575b50611574925003836113ae565b565b90505f9291925260205f20905f915b81831061159e575050906020611574928201015f611567565b6020919350806001915483858901015201910190918492611585565b90506020925061157494915060ff191682840152151560051b8201015f611567565b919082018092116107065756fea2646970667358221220b14bfd5c891864f0acb38504682d827baf6056f0015334320e656073d36a0e1964736f6c634300081a0033","linkReferences":{}},"methodIdentifiers":{"getAgent(string)":"794464e9","getRecipients(string)":"584f0401","nextTokenId()":"75794a3c","owner()":"8da5cb5b","recordEvent(string,bytes32,bytes32)":"f7a3519e","registerAgent(string,address,address,address,string,(uint16,uint16,uint16,uint16))":"89ff661b","resolveKey(string)":"8229fc26","setEconomicConfig(string,address,address,address)":"0cd08f14","splitConfigMutable()":"2632c52e","updateMetadata(string,string)":"56ce0e6c","updateSplitConfig(string,(uint16,uint16,uint16,uint16))":"183e0e01","updateStatus(string,uint8)":"53616982"},"id":20}